{
  "_format": "hh-sol-artifact-1",
  "contractName": "FreelancePlatform",
  "sourceName": "contracts/FreelancePlatform.sol",
  "abi": [
    {
      "anonymous": false,
      "inputs": [
        {
          "indexed": false,
          "internalType": "uint256",
          "name": "id",
          "type": "uint256"
        },
        {
          "indexed": false,
          "internalType": "uint256",
          "name": "amount",
          "type": "uint256"
        }
      ],
      "name": "PaymentReleased",
      "type": "event"
    },
    {
      "anonymous": false,
      "inputs": [
        {
          "indexed": false,
          "internalType": "uint256",
          "name": "id",
          "type": "uint256"
        },
        {
          "indexed": false,
          "internalType": "address",
          "name": "client",
          "type": "address"
        },
        {
          "indexed": false,
          "internalType": "address",
          "name": "freelancer",
          "type": "address"
        },
        {
          "indexed": false,
          "internalType": "uint256",
          "name": "amount",
          "type": "uint256"
        },
        {
          "indexed": false,
          "internalType": "string",
          "name": "description",
          "type": "string"
        }
      ],
      "name": "ProjectCreated",
      "type": "event"
    },
    {
      "anonymous": false,
      "inputs": [
        {
          "indexed": false,
          "internalType": "uint256",
          "name": "id",
          "type": "uint256"
        }
      ],
      "name": "WorkCompleted",
      "type": "event"
    },
    {
      "inputs": [
        {
          "internalType": "address",
          "name": "_freelancer",
          "type": "address"
        },
        {
          "internalType": "string",
          "name": "_description",
          "type": "string"
        }
      ],
      "name": "createProject",
      "outputs": [],
      "stateMutability": "payable",
      "type": "function"
    },
    {
      "inputs": [
        {
          "internalType": "uint256",
          "name": "_id",
          "type": "uint256"
        }
      ],
      "name": "getProject",
      "outputs": [
        {
          "components": [
            {
              "internalType": "uint256",
              "name": "id",
              "type": "uint256"
            },
            {
              "internalType": "address",
              "name": "client",
              "type": "address"
            },
            {
              "internalType": "address",
              "name": "freelancer",
              "type": "address"
            },
            {
              "internalType": "uint256",
              "name": "amount",
              "type": "uint256"
            },
            {
              "internalType": "string",
              "name": "description",
              "type": "string"
            },
            {
              "internalType": "bool",
              "name": "isCompleted",
              "type": "bool"
            },
            {
              "internalType": "bool",
              "name": "isPaid",
              "type": "bool"
            },
            {
              "internalType": "bool",
              "name": "exists",
              "type": "bool"
            }
          ],
          "internalType": "struct FreelancePlatform.Project",
          "name": "",
          "type": "tuple"
        }
      ],
      "stateMutability": "view",
      "type": "function"
    },
    {
      "inputs": [
        {
          "internalType": "uint256",
          "name": "_id",
          "type": "uint256"
        }
      ],
      "name": "markCompleted",
      "outputs": [],
      "stateMutability": "nonpayable",
      "type": "function"
    },
    {
      "inputs": [],
      "name": "projectCount",
      "outputs": [
        {
          "internalType": "uint256",
          "name": "",
          "type": "uint256"
        }
      ],
      "stateMutability": "view",
      "type": "function"
    },
    {
      "inputs": [
        {
          "internalType": "uint256",
          "name": "",
          "type": "uint256"
        }
      ],
      "name": "projects",
      "outputs": [
        {
          "internalType": "uint256",
          "name": "id",
          "type": "uint256"
        },
        {
          "internalType": "address",
          "name": "client",
          "type": "address"
        },
        {
          "internalType": "address",
          "name": "freelancer",
          "type": "address"
        },
        {
          "internalType": "uint256",
          "name": "amount",
          "type": "uint256"
        },
        {
          "internalType": "string",
          "name": "description",
          "type": "string"
        },
        {
          "internalType": "bool",
          "name": "isCompleted",
          "type": "bool"
        },
        {
          "internalType": "bool",
          "name": "isPaid",
          "type": "bool"
        },
        {
          "internalType": "bool",
          "name": "exists",
          "type": "bool"
        }
      ],
      "stateMutability": "view",
      "type": "function"
    },
    {
      "inputs": [
        {
          "internalType": "uint256",
          "name": "_id",
          "type": "uint256"
        }
      ],
      "name": "releaseFunds",
      "outputs": [],
      "stateMutability": "nonpayable",
      "type": "function"
    }
  ],
  "bytecode": "0x608060405260008055348015601357600080fd5b50611953806100236000396000f3fe6080604052600436106100555760003560e01c8063107046bd1461005a57806336fbad261461009e5780634d68282f146100c9578063c5cca334146100f2578063cac5c5121461010e578063f0f3f2c814610137575b600080fd5b34801561006657600080fd5b50610081600480360381019061007c9190610c65565b610174565b604051610095989796959493929190610d8d565b60405180910390f35b3480156100aa57600080fd5b506100b36102ab565b6040516100c09190610e12565b60405180910390f35b3480156100d557600080fd5b506100f060048036038101906100eb9190610c65565b6102b1565b005b61010c60048036038101906101079190610f8e565b610581565b005b34801561011a57600080fd5b5061013560048036038101906101309190610c65565b61082f565b005b34801561014357600080fd5b5061015e60048036038101906101599190610c65565b6109d3565b60405161016b9190611111565b60405180910390f35b60016020528060005260406000206000915090508060000154908060010160009054906101000a900473ffffffffffffffffffffffffffffffffffffffff16908060020160009054906101000a900473ffffffffffffffffffffffffffffffffffffffff16908060030154908060040180546101ef90611162565b80601f016020809104026020016040519081016040528092919081815260200182805461021b90611162565b80156102685780601f1061023d57610100808354040283529160200191610268565b820191906000526020600020905b81548152906001019060200180831161024b57829003601f168201915b5050505050908060050160009054906101000a900460ff16908060050160019054906101000a900460ff16908060050160029054906101000a900460ff16905088565b60005481565b60006001600083815260200190815260200160002090508060050160029054906101000a900460ff16610319576040517f08c379a0000000000000000000000000000000000000000000000000000000008152600401610310906111df565b60405180910390fd5b8060010160009054906101000a900473ffffffffffffffffffffffffffffffffffffffff1673ffffffffffffffffffffffffffffffffffffffff163373ffffffffffffffffffffffffffffffffffffffff16146103ab576040517f08c379a00000000000000000000000000000000000000000000000000000000081526004016103a29061124b565b60405180910390fd5b8060050160009054906101000a900460ff166103fc576040517f08c379a00000000000000000000000000000000000000000000000000000000081526004016103f3906112b7565b60405180910390fd5b8060050160019054906101000a900460ff161561044e576040517f08c379a000000000000000000000000000000000000000000000000000000000815260040161044590611323565b60405180910390fd5b60018160050160016101000a81548160ff02191690831515021790555060008160020160009054906101000a900473ffffffffffffffffffffffffffffffffffffffff1673ffffffffffffffffffffffffffffffffffffffff1682600301546040516104b990611374565b60006040518083038185875af1925050503d80600081146104f6576040519150601f19603f3d011682016040523d82523d6000602084013e6104fb565b606091505b505090508061053f576040517f08c379a0000000000000000000000000000000000000000000000000000000008152600401610536906113d5565b60405180910390fd5b7fc8ef479acdbffd729d96117b951d1c3ee85d98ef42699aec806bc4f0b522461d8383600301546040516105749291906113f5565b60405180910390a1505050565b600034116105c4576040517f08c379a00000000000000000000000000000000000000000000000000000000081526004016105bb9061146a565b60405180910390fd5b600073ffffffffffffffffffffffffffffffffffffffff168273ffffffffffffffffffffffffffffffffffffffff1603610633576040517f08c379a000000000000000000000000000000000000000000000000000000000815260040161062a906114d6565b60405180910390fd5b60008081548092919061064590611525565b919050555060405180610100016040528060005481526020013373ffffffffffffffffffffffffffffffffffffffff1681526020018373ffffffffffffffffffffffffffffffffffffffff1681526020013481526020018281526020016000151581526020016000151581526020016001151581525060016000805481526020019081526020016000206000820151816000015560208201518160010160006101000a81548173ffffffffffffffffffffffffffffffffffffffff021916908373ffffffffffffffffffffffffffffffffffffffff16021790555060408201518160020160006101000a81548173ffffffffffffffffffffffffffffffffffffffff021916908373ffffffffffffffffffffffffffffffffffffffff1602179055506060820151816003015560808201518160040190816107869190611719565b5060a08201518160050160006101000a81548160ff02191690831515021790555060c08201518160050160016101000a81548160ff02191690831515021790555060e08201518160050160026101000a81548160ff0219169083151502179055509050507ffb6937f1c195f216dff342a846c276a08ad09ccc4a26142dab31c3e8c6ef2444600054338434856040516108239594939291906117eb565b60405180910390a15050565b60006001600083815260200190815260200160002090508060050160029054906101000a900460ff16610897576040517f08c379a000000000000000000000000000000000000000000000000000000000815260040161088e906111df565b60405180910390fd5b8060020160009054906101000a900473ffffffffffffffffffffffffffffffffffffffff1673ffffffffffffffffffffffffffffffffffffffff163373ffffffffffffffffffffffffffffffffffffffff1614610929576040517f08c379a000000000000000000000000000000000000000000000000000000000815260040161092090611891565b60405180910390fd5b8060050160009054906101000a900460ff161561097b576040517f08c379a0000000000000000000000000000000000000000000000000000000008152600401610972906118fd565b60405180910390fd5b60018160050160006101000a81548160ff0219169083151502179055507fdfa3dd1a18e19f2e971febeb0d2668331bf8ead550ffc52fa0954b80d7321e5b826040516109c79190610e12565b60405180910390a15050565b6109db610ba4565b6001600083815260200190815260200160002060405180610100016040529081600082015481526020016001820160009054906101000a900473ffffffffffffffffffffffffffffffffffffffff1673ffffffffffffffffffffffffffffffffffffffff1673ffffffffffffffffffffffffffffffffffffffff1681526020016002820160009054906101000a900473ffffffffffffffffffffffffffffffffffffffff1673ffffffffffffffffffffffffffffffffffffffff1673ffffffffffffffffffffffffffffffffffffffff16815260200160038201548152602001600482018054610aca90611162565b80601f0160208091040260200160405190810160405280929190818152602001828054610af690611162565b8015610b435780601f10610b1857610100808354040283529160200191610b43565b820191906000526020600020905b815481529060010190602001808311610b2657829003601f168201915b505050505081526020016005820160009054906101000a900460ff161515151581526020016005820160019054906101000a900460ff161515151581526020016005820160029054906101000a900460ff1615151515815250509050919050565b60405180610100016040528060008152602001600073ffffffffffffffffffffffffffffffffffffffff168152602001600073ffffffffffffffffffffffffffffffffffffffff16815260200160008152602001606081526020016000151581526020016000151581526020016000151581525090565b6000604051905090565b600080fd5b600080fd5b6000819050919050565b610c4281610c2f565b8114610c4d57600080fd5b50565b600081359050610c5f81610c39565b92915050565b600060208284031215610c7b57610c7a610c25565b5b6000610c8984828501610c50565b91505092915050565b610c9b81610c2f565b82525050565b600073ffffffffffffffffffffffffffffffffffffffff82169050919050565b6000610ccc82610ca1565b9050919050565b610cdc81610cc1565b82525050565b600081519050919050565b600082825260208201905092915050565b60005b83811015610d1c578082015181840152602081019050610d01565b60008484015250505050565b6000601f19601f8301169050919050565b6000610d4482610ce2565b610d4e8185610ced565b9350610d5e818560208601610cfe565b610d6781610d28565b840191505092915050565b60008115159050919050565b610d8781610d72565b82525050565b600061010082019050610da3600083018b610c92565b610db0602083018a610cd3565b610dbd6040830189610cd3565b610dca6060830188610c92565b8181036080830152610ddc8187610d39565b9050610deb60a0830186610d7e565b610df860c0830185610d7e565b610e0560e0830184610d7e565b9998505050505050505050565b6000602082019050610e276000830184610c92565b92915050565b610e3681610cc1565b8114610e4157600080fd5b50565b600081359050610e5381610e2d565b92915050565b600080fd5b600080fd5b7f4e487b7100000000000000000000000000000000000000000000000000000000600052604160045260246000fd5b610e9b82610d28565b810181811067ffffffffffffffff82111715610eba57610eb9610e63565b5b80604052505050565b6000610ecd610c1b565b9050610ed98282610e92565b919050565b600067ffffffffffffffff821115610ef957610ef8610e63565b5b610f0282610d28565b9050602081019050919050565b82818337600083830152505050565b6000610f31610f2c84610ede565b610ec3565b905082815260208101848484011115610f4d57610f4c610e5e565b5b610f58848285610f0f565b509392505050565b600082601f830112610f7557610f74610e59565b5b8135610f85848260208601610f1e565b91505092915050565b60008060408385031215610fa557610fa4610c25565b5b6000610fb385828601610e44565b925050602083013567ffffffffffffffff811115610fd457610fd3610c2a565b5b610fe085828601610f60565b9150509250929050565b610ff381610c2f565b82525050565b61100281610cc1565b82525050565b600082825260208201905092915050565b600061102482610ce2565b61102e8185611008565b935061103e818560208601610cfe565b61104781610d28565b840191505092915050565b61105b81610d72565b82525050565b60006101008301600083015161107a6000860182610fea565b50602083015161108d6020860182610ff9565b5060408301516110a06040860182610ff9565b5060608301516110b36060860182610fea565b50608083015184820360808601526110cb8282611019565b91505060a08301516110e060a0860182611052565b5060c08301516110f360c0860182611052565b5060e083015161110660e0860182611052565b508091505092915050565b6000602082019050818103600083015261112b8184611061565b905092915050565b7f4e487b7100000000000000000000000000000000000000000000000000000000600052602260045260246000fd5b6000600282049050600182168061117a57607f821691505b60208210810361118d5761118c611133565b5b50919050565b7f50726f6a65637420646f6573206e6f7420657869737400000000000000000000600082015250565b60006111c9601683610ced565b91506111d482611193565b602082019050919050565b600060208201905081810360008301526111f8816111bc565b9050919050565b7f4f6e6c7920636c69656e742063616e2072656c656173652066756e6473000000600082015250565b6000611235601d83610ced565b9150611240826111ff565b602082019050919050565b6000602082019050818103600083015261126481611228565b9050919050565b7f576f726b206e6f7420636f6d706c657465642079657400000000000000000000600082015250565b60006112a1601683610ced565b91506112ac8261126b565b602082019050919050565b600060208201905081810360008301526112d081611294565b9050919050565b7f416c726561647920706169640000000000000000000000000000000000000000600082015250565b600061130d600c83610ced565b9150611318826112d7565b602082019050919050565b6000602082019050818103600083015261133c81611300565b9050919050565b600081905092915050565b50565b600061135e600083611343565b91506113698261134e565b600082019050919050565b600061137f82611351565b9150819050919050565b7f5472616e73666572206661696c65640000000000000000000000000000000000600082015250565b60006113bf600f83610ced565b91506113ca82611389565b602082019050919050565b600060208201905081810360008301526113ee816113b2565b9050919050565b600060408201905061140a6000830185610c92565b6114176020830184610c92565b9392505050565b7f5072696365206d7573742062652067726561746572207468616e203000000000600082015250565b6000611454601c83610ced565b915061145f8261141e565b602082019050919050565b6000602082019050818103600083015261148381611447565b9050919050565b7f496e76616c696420667265656c616e6365722061646472657373000000000000600082015250565b60006114c0601a83610ced565b91506114cb8261148a565b602082019050919050565b600060208201905081810360008301526114ef816114b3565b9050919050565b7f4e487b7100000000000000000000000000000000000000000000000000000000600052601160045260246000fd5b600061153082610c2f565b91507fffffffffffffffffffffffffffffffffffffffffffffffffffffffffffffffff8203611562576115616114f6565b5b600182019050919050565b60008190508160005260206000209050919050565b60006020601f8301049050919050565b600082821b905092915050565b6000600883026115cf7fffffffffffffffffffffffffffffffffffffffffffffffffffffffffffffffff82611592565b6115d98683611592565b95508019841693508086168417925050509392505050565b6000819050919050565b600061161661161161160c84610c2f565b6115f1565b610c2f565b9050919050565b6000819050919050565b611630836115fb565b61164461163c8261161d565b84845461159f565b825550505050565b600090565b61165961164c565b611664818484611627565b505050565b5b818110156116885761167d600082611651565b60018101905061166a565b5050565b601f8211156116cd5761169e8161156d565b6116a784611582565b810160208510156116b6578190505b6116ca6116c285611582565b830182611669565b50505b505050565b600082821c905092915050565b60006116f0600019846008026116d2565b1980831691505092915050565b600061170983836116df565b9150826002028217905092915050565b61172282610ce2565b67ffffffffffffffff81111561173b5761173a610e63565b5b6117458254611162565b61175082828561168c565b600060209050601f8311600181146117835760008415611771578287015190505b61177b85826116fd565b8655506117e3565b601f1984166117918661156d565b60005b828110156117b957848901518255600182019150602085019450602081019050611794565b868310156117d657848901516117d2601f8916826116df565b8355505b6001600288020188555050505b505050505050565b600060a0820190506118006000830188610c92565b61180d6020830187610cd3565b61181a6040830186610cd3565b6118276060830185610c92565b81810360808301526118398184610d39565b90509695505050505050565b7f4f6e6c7920667265656c616e6365722063616e20636f6d706c65746500000000600082015250565b600061187b601c83610ced565b915061188682611845565b602082019050919050565b600060208201905081810360008301526118aa8161186e565b9050919050565b7f416c726561647920636f6d706c65746564000000000000000000000000000000600082015250565b60006118e7601183610ced565b91506118f2826118b1565b602082019050919050565b60006020820190508181036000830152611916816118da565b905091905056fea26469706673582212202282aef61b71cbd09a96343c1b79090fb1b63c4f4548f97f0cf958187e557d4964736f6c634300081c0033",
  "linkReferences": {},
  "deployedLinkReferences": {}
}