{"contracts/FreelancePlatform.sol":{"FreelancePlatform":{"abi":[{"anonymous":false,"inputs":[{"indexed":false,"internalType":"uint256","name":"id","type":"uint256"},{"indexed":false,"internalType":"uint256","name":"amount","type":"uint256"}],"name":"PaymentReleased","type":"event"},{"anonymous":false,"inputs":[{"indexed":false,"internalType":"uint256","name":"id","type":"uint256"},{"indexed":false,"internalType":"address","name":"client","type":"address"},{"indexed":false,"internalType":"address","name":"freelancer","type":"address"},{"indexed":false,"internalType":"uint256","name":"amount","type":"uint256"},{"indexed":false,"internalType":"string","name":"description","type":"string"}],"name":"ProjectCreated","type":"event"},{"anonymous":false,"inputs":[{"indexed":false,"internalType":"uint256","name":"id","type":"uint256"}],"name":"WorkCompleted","type":"event"},{"inputs":[{"internalType":"address","name":"_freelancer","type":"address"},{"internalType":"string","name":"_description","type":"string"}],"name":"createProject","outputs":[],"stateMutability":"payable","type":"function"},{"inputs":[{"internalType":"uint256","name":"_id","type":"uint256"}],"name":"getProject","outputs":[{"components":[{"internalType":"uint256","name":"id","type":"uint256"},{"internalType":"address","name":"client","type":"address"},{"internalType":"address","name":"freelancer","type":"address"},{"internalType":"uint256","name":"amount","type":"uint256"},{"internalType":"string","name":"description","type":"string"},{"internalType":"bool","name":"isCompleted","type":"bool"},{"internalType":"bool","name":"isPaid","type":"bool"},{"internalType":"bool","name":"exists","type":"bool"}],"internalType":"struct FreelancePlatform.Project","name":"","type":"tuple"}],"stateMutability":"view","type":"function"},{"inputs":[{"internalType":"uint256","name":"_id","type":"uint256"}],"name":"markCompleted","outputs":[],"stateMutability":"nonpayable","type":"function"},{"inputs":[],"name":"projectCount","outputs":[{"internalType":"uint256","name":"","type":"uint256"}],"stateMutability":"view","type":"function"},{"inputs":[{"internalType":"uint256","name":"","type":"uint256"}],"name":"projects","outputs":[{"internalType":"uint256","name":"id","type":"uint256"},{"internalType":"address","name":"client","type":"address"},{"internalType":"address","name":"freelancer","type":"address"},{"internalType":"uint256","name":"amount","type":"uint256"},{"internalType":"string","name":"description","type":"string"},{"internalType":"bool","name":"isCompleted","type":"bool"},{"internalType":"bool","name":"isPaid","type":"bool"},{"internalType":"bool","name":"exists","type":"bool"}],"stateMutability":"view","type":"function"},{"inputs":[{"internalType":"uint256","name":"_id","type":"uint256"}],"name":"releaseFunds","outputs":[],"stateMutability":"nonpayable","type":"function"}],"evm":{"bytecode":{"linkReferences":{},"object":"608060405260008055348015601357600080fd5b50611953806100236000396000f3fe6080604052600436106100555760003560e01c8063107046bd1461005a57806336fbad261461009e5780634d68282f146100c9578063c5cca334146100f2578063cac5c5121461010e578063f0f3f2c814610137575b600080fd5b34801561006657600080fd5b50610081600480360381019061007c9190610c65565b610174565b604051610095989796959493929190610d8d565b60405180910390f35b3480156100aa57600080fd5b506100b36102ab565b6040516100c09190610e12565b60405180910390f35b3480156100d557600080fd5b506100f060048036038101906100eb9190610c65565b6102b1565b005b61010c60048036038101906101079190610f8e565b610581565b005b34801561011a57600080fd5b5061013560048036038101906101309190610c65565b61082f565b005b34801561014357600080fd5b5061015e60048036038101906101599190610c65565b6109d3565b60405161016b9190611111565b60405180910390f35b60016020528060005260406000206000915090508060000154908060010160009054906101000a900473ffffffffffffffffffffffffffffffffffffffff16908060020160009054906101000a900473ffffffffffffffffffffffffffffffffffffffff16908060030154908060040180546101ef90611162565b80601f016020809104026020016040519081016040528092919081815260200182805461021b90611162565b80156102685780601f1061023d57610100808354040283529160200191610268565b820191906000526020600020905b81548152906001019060200180831161024b57829003601f168201915b5050505050908060050160009054906101000a900460ff16908060050160019054906101000a900460ff16908060050160029054906101000a900460ff16905088565b60005481565b60006001600083815260200190815260200160002090508060050160029054906101000a900460ff16610319576040517f08c379a0000000000000000000000000000000000000000000000000000000008152600401610310906111df565b60405180910390fd5b8060010160009054906101000a900473ffffffffffffffffffffffffffffffffffffffff1673ffffffffffffffffffffffffffffffffffffffff163373ffffffffffffffffffffffffffffffffffffffff16146103ab576040517f08c379a00000000000000000000000000000000000000000000000000000000081526004016103a29061124b565b60405180910390fd5b8060050160009054906101000a900460ff166103fc576040517f08c379a00000000000000000000000000000000000000000000000000000000081526004016103f3906112b7565b60405180910390fd5b8060050160019054906101000a900460ff161561044e576040517f08c379a000000000000000000000000000000000000000000000000000000000815260040161044590611323565b60405180910390fd5b60018160050160016101000a81548160ff02191690831515021790555060008160020160009054906101000a900473ffffffffffffffffffffffffffffffffffffffff1673ffffffffffffffffffffffffffffffffffffffff1682600301546040516104b990611374565b60006040518083038185875af1925050503d80600081146104f6576040519150601f19603f3d011682016040523d82523d6000602084013e6104fb565b606091505b505090508061053f576040517f08c379a0000000000000000000000000000000000000000000000000000000008152600401610536906113d5565b60405180910390fd5b7fc8ef479acdbffd729d96117b951d1c3ee85d98ef42699aec806bc4f0b522461d8383600301546040516105749291906113f5565b60405180910390a1505050565b600034116105c4576040517f08c379a00000000000000000000000000000000000000000000000000000000081526004016105bb9061146a565b60405180910390fd5b600073ffffffffffffffffffffffffffffffffffffffff168273ffffffffffffffffffffffffffffffffffffffff1603610633576040517f08c379a000000000000000000000000000000000000000000000000000000000815260040161062a906114d6565b60405180910390fd5b60008081548092919061064590611525565b919050555060405180610100016040528060005481526020013373ffffffffffffffffffffffffffffffffffffffff1681526020018373ffffffffffffffffffffffffffffffffffffffff1681526020013481526020018281526020016000151581526020016000151581526020016001151581525060016000805481526020019081526020016000206000820151816000015560208201518160010160006101000a81548173ffffffffffffffffffffffffffffffffffffffff021916908373ffffffffffffffffffffffffffffffffffffffff16021790555060408201518160020160006101000a81548173ffffffffffffffffffffffffffffffffffffffff021916908373ffffffffffffffffffffffffffffffffffffffff1602179055506060820151816003015560808201518160040190816107869190611719565b5060a08201518160050160006101000a81548160ff02191690831515021790555060c08201518160050160016101000a81548160ff02191690831515021790555060e08201518160050160026101000a81548160ff0219169083151502179055509050507ffb6937f1c195f216dff342a846c276a08ad09ccc4a26142dab31c3e8c6ef2444600054338434856040516108239594939291906117eb565b60405180910390a15050565b60006001600083815260200190815260200160002090508060050160029054906101000a900460ff16610897576040517f08c379a000000000000000000000000000000000000000000000000000000000815260040161088e906111df565b60405180910390fd5b8060020160009054906101000a900473ffffffffffffffffffffffffffffffffffffffff1673ffffffffffffffffffffffffffffffffffffffff163373ffffffffffffffffffffffffffffffffffffffff1614610929576040517f08c379a000000000000000000000000000000000000000000000000000000000815260040161092090611891565b60405180910390fd5b8060050160009054906101000a900460ff161561097b576040517f08c379a0000000000000000000000000000000000000000000000000000000008152600401610972906118fd565b60405180910390fd5b60018160050160006101000a81548160ff0219169083151502179055507fdfa3dd1a18e19f2e971febeb0d2668331bf8ead550ffc52fa0954b80d7321e5b826040516109c79190610e12565b60405180910390a15050565b6109db610ba4565b6001600083815260200190815260200160002060405180610100016040529081600082015481526020016001820160009054906101000a900473ffffffffffffffffffffffffffffffffffffffff1673ffffffffffffffffffffffffffffffffffffffff1673ffffffffffffffffffffffffffffffffffffffff1681526020016002820160009054906101000a900473ffffffffffffffffffffffffffffffffffffffff1673ffffffffffffffffffffffffffffffffffffffff1673ffffffffffffffffffffffffffffffffffffffff16815260200160038201548152602001600482018054610aca90611162565b80601f0160208091040260200160405190810160405280929190818152602001828054610af690611162565b8015610b435780601f10610b1857610100808354040283529160200191610b43565b820191906000526020600020905b815481529060010190602001808311610b2657829003601f168201915b505050505081526020016005820160009054906101000a900460ff161515151581526020016005820160019054906101000a900460ff161515151581526020016005820160029054906101000a900460ff1615151515815250509050919050565b60405180610100016040528060008152602001600073ffffffffffffffffffffffffffffffffffffffff168152602001600073ffffffffffffffffffffffffffffffffffffffff16815260200160008152602001606081526020016000151581526020016000151581526020016000151581525090565b6000604051905090565b600080fd5b600080fd5b6000819050919050565b610c4281610c2f565b8114610c4d57600080fd5b50565b600081359050610c5f81610c39565b92915050565b600060208284031215610c7b57610c7a610c25565b5b6000610c8984828501610c50565b91505092915050565b610c9b81610c2f565b82525050565b600073ffffffffffffffffffffffffffffffffffffffff82169050919050565b6000610ccc82610ca1565b9050919050565b610cdc81610cc1565b82525050565b600081519050919050565b600082825260208201905092915050565b60005b83811015610d1c578082015181840152602081019050610d01565b60008484015250505050565b6000601f19601f8301169050919050565b6000610d4482610ce2565b610d4e8185610ced565b9350610d5e818560208601610cfe565b610d6781610d28565b840191505092915050565b60008115159050919050565b610d8781610d72565b82525050565b600061010082019050610da3600083018b610c92565b610db0602083018a610cd3565b610dbd6040830189610cd3565b610dca6060830188610c92565b8181036080830152610ddc8187610d39565b9050610deb60a0830186610d7e565b610df860c0830185610d7e565b610e0560e0830184610d7e565b9998505050505050505050565b6000602082019050610e276000830184610c92565b92915050565b610e3681610cc1565b8114610e4157600080fd5b50565b600081359050610e5381610e2d565b92915050565b600080fd5b600080fd5b7f4e487b7100000000000000000000000000000000000000000000000000000000600052604160045260246000fd5b610e9b82610d28565b810181811067ffffffffffffffff82111715610eba57610eb9610e63565b5b80604052505050565b6000610ecd610c1b565b9050610ed98282610e92565b919050565b600067ffffffffffffffff821115610ef957610ef8610e63565b5b610f0282610d28565b9050602081019050919050565b82818337600083830152505050565b6000610f31610f2c84610ede565b610ec3565b905082815260208101848484011115610f4d57610f4c610e5e565b5b610f58848285610f0f565b509392505050565b600082601f830112610f7557610f74610e59565b5b8135610f85848260208601610f1e565b91505092915050565b60008060408385031215610fa557610fa4610c25565b5b6000610fb385828601610e44565b925050602083013567ffffffffffffffff811115610fd457610fd3610c2a565b5b610fe085828601610f60565b9150509250929050565b610ff381610c2f565b82525050565b61100281610cc1565b82525050565b600082825260208201905092915050565b600061102482610ce2565b61102e8185611008565b935061103e818560208601610cfe565b61104781610d28565b840191505092915050565b61105b81610d72565b82525050565b60006101008301600083015161107a6000860182610fea565b50602083015161108d6020860182610ff9565b5060408301516110a06040860182610ff9565b5060608301516110b36060860182610fea565b50608083015184820360808601526110cb8282611019565b91505060a08301516110e060a0860182611052565b5060c08301516110f360c0860182611052565b5060e083015161110660e0860182611052565b508091505092915050565b6000602082019050818103600083015261112b8184611061565b905092915050565b7f4e487b7100000000000000000000000000000000000000000000000000000000600052602260045260246000fd5b6000600282049050600182168061117a57607f821691505b60208210810361118d5761118c611133565b5b50919050565b7f50726f6a65637420646f6573206e6f7420657869737400000000000000000000600082015250565b60006111c9601683610ced565b91506111d482611193565b602082019050919050565b600060208201905081810360008301526111f8816111bc565b9050919050565b7f4f6e6c7920636c69656e742063616e2072656c656173652066756e6473000000600082015250565b6000611235601d83610ced565b9150611240826111ff565b602082019050919050565b6000602082019050818103600083015261126481611228565b9050919050565b7f576f726b206e6f7420636f6d706c657465642079657400000000000000000000600082015250565b60006112a1601683610ced565b91506112ac8261126b565b602082019050919050565b600060208201905081810360008301526112d081611294565b9050919050565b7f416c726561647920706169640000000000000000000000000000000000000000600082015250565b600061130d600c83610ced565b9150611318826112d7565b602082019050919050565b6000602082019050818103600083015261133c81611300565b9050919050565b600081905092915050565b50565b600061135e600083611343565b91506113698261134e565b600082019050919050565b600061137f82611351565b9150819050919050565b7f5472616e73666572206661696c65640000000000000000000000000000000000600082015250565b60006113bf600f83610ced565b91506113ca82611389565b602082019050919050565b600060208201905081810360008301526113ee816113b2565b9050919050565b600060408201905061140a6000830185610c92565b6114176020830184610c92565b9392505050565b7f5072696365206d7573742062652067726561746572207468616e203000000000600082015250565b6000611454601c83610ced565b915061145f8261141e565b602082019050919050565b6000602082019050818103600083015261148381611447565b9050919050565b7f496e76616c696420667265656c616e6365722061646472657373000000000000600082015250565b60006114c0601a83610ced565b91506114cb8261148a565b602082019050919050565b600060208201905081810360008301526114ef816114b3565b9050919050565b7f4e487b7100000000000000000000000000000000000000000000000000000000600052601160045260246000fd5b600061153082610c2f565b91507fffffffffffffffffffffffffffffffffffffffffffffffffffffffffffffffff8203611562576115616114f6565b5b600182019050919050565b60008190508160005260206000209050919050565b60006020601f8301049050919050565b600082821b905092915050565b6000600883026115cf7fffffffffffffffffffffffffffffffffffffffffffffffffffffffffffffffff82611592565b6115d98683611592565b95508019841693508086168417925050509392505050565b6000819050919050565b600061161661161161160c84610c2f565b6115f1565b610c2f565b9050919050565b6000819050919050565b611630836115fb565b61164461163c8261161d565b84845461159f565b825550505050565b600090565b61165961164c565b611664818484611627565b505050565b5b818110156116885761167d600082611651565b60018101905061166a565b5050565b601f8211156116cd5761169e8161156d565b6116a784611582565b810160208510156116b6578190505b6116ca6116c285611582565b830182611669565b50505b505050565b600082821c905092915050565b60006116f0600019846008026116d2565b1980831691505092915050565b600061170983836116df565b9150826002028217905092915050565b61172282610ce2565b67ffffffffffffffff81111561173b5761173a610e63565b5b6117458254611162565b61175082828561168c565b600060209050601f8311600181146117835760008415611771578287015190505b61177b85826116fd565b8655506117e3565b601f1984166117918661156d565b60005b828110156117b957848901518255600182019150602085019450602081019050611794565b868310156117d657848901516117d2601f8916826116df565b8355505b6001600288020188555050505b505050505050565b600060a0820190506118006000830188610c92565b61180d6020830187610cd3565b61181a6040830186610cd3565b6118276060830185610c92565b81810360808301526118398184610d39565b90509695505050505050565b7f4f6e6c7920667265656c616e6365722063616e20636f6d706c65746500000000600082015250565b600061187b601c83610ced565b915061188682611845565b602082019050919050565b600060208201905081810360008301526118aa8161186e565b9050919050565b7f416c726561647920636f6d706c65746564000000000000000000000000000000600082015250565b60006118e7601183610ced565b91506118f2826118b1565b602082019050919050565b60006020820190508181036000830152611916816118da565b905091905056fea26469706673582212202282aef61b71cbd09a96343c1b79090fb1b63c4f4548f97f0cf958187e557d4964736f6c634300081c0033","opcodes":"PUSH1 0x80 PUSH1 0x40 MSTORE PUSH1 0x0 DUP1 SSTORE CALLVALUE DUP1 ISZERO PUSH1 0x13 JUMPI PUSH1 0x0 DUP1 REVERT JUMPDEST POP PUSH2 0x1953 DUP1 PUSH2 0x23 PUSH1 0x0 CODECOPY PUSH1 0x0 RETURN INVALID PUSH1 0x80 PUSH1 0x40 MSTORE PUSH1 0x4 CALLDATASIZE LT PUSH2 0x55 JUMPI PUSH1 0x0 CALLDATALOAD PUSH1 0xE0 SHR DUP1 PUSH4 0x107046BD EQ PUSH2 0x5A JUMPI DUP1 PUSH4 0x36FBAD26 EQ PUSH2 0x9E JUMPI DUP1 PUSH4 0x4D68282F EQ PUSH2 0xC9 JUMPI DUP1 PUSH4 0xC5CCA334 EQ PUSH2 0xF2 JUMPI DUP1 PUSH4 0xCAC5C512 EQ PUSH2 0x10E JUMPI DUP1 PUSH4 0xF0F3F2C8 EQ PUSH2 0x137 JUMPI JUMPDEST PUSH1 0x0 DUP1 REVERT JUMPDEST CALLVALUE DUP1 ISZERO PUSH2 0x66 JUMPI PUSH1 0x0 DUP1 REVERT JUMPDEST POP PUSH2 0x81 PUSH1 0x4 DUP1 CALLDATASIZE SUB DUP2 ADD SWAP1 PUSH2 0x7C SWAP2 SWAP1 PUSH2 0xC65 JUMP JUMPDEST PUSH2 0x174 JUMP JUMPDEST PUSH1 0x40 MLOAD PUSH2 0x95 SWAP9 SWAP8 SWAP7 SWAP6 SWAP5 SWAP4 SWAP3 SWAP2 SWAP1 PUSH2 0xD8D JUMP JUMPDEST PUSH1 0x40 MLOAD DUP1 SWAP2 SUB SWAP1 RETURN JUMPDEST CALLVALUE DUP1 ISZERO PUSH2 0xAA JUMPI PUSH1 0x0 DUP1 REVERT JUMPDEST POP PUSH2 0xB3 PUSH2 0x2AB JUMP JUMPDEST PUSH1 0x40 MLOAD PUSH2 0xC0 SWAP2 SWAP1 PUSH2 0xE12 JUMP JUMPDEST PUSH1 0x40 MLOAD DUP1 SWAP2 SUB SWAP1 RETURN JUMPDEST CALLVALUE DUP1 ISZERO PUSH2 0xD5 JUMPI PUSH1 0x0 DUP1 REVERT JUMPDEST POP PUSH2 0xF0 PUSH1 0x4 DUP1 CALLDATASIZE SUB DUP2 ADD SWAP1 PUSH2 0xEB SWAP2 SWAP1 PUSH2 0xC65 JUMP JUMPDEST PUSH2 0x2B1 JUMP JUMPDEST STOP JUMPDEST PUSH2 0x10C PUSH1 0x4 DUP1 CALLDATASIZE SUB DUP2 ADD SWAP1 PUSH2 0x107 SWAP2 SWAP1 PUSH2 0xF8E JUMP JUMPDEST PUSH2 0x581 JUMP JUMPDEST STOP JUMPDEST CALLVALUE DUP1 ISZERO PUSH2 0x11A JUMPI PUSH1 0x0 DUP1 REVERT JUMPDEST POP PUSH2 0x135 PUSH1 0x4 DUP1 CALLDATASIZE SUB DUP2 ADD SWAP1 PUSH2 0x130 SWAP2 SWAP1 PUSH2 0xC65 JUMP JUMPDEST PUSH2 0x82F JUMP JUMPDEST STOP JUMPDEST CALLVALUE DUP1 ISZERO PUSH2 0x143 JUMPI PUSH1 0x0 DUP1 REVERT JUMPDEST POP PUSH2 0x15E PUSH1 0x4 DUP1 CALLDATASIZE SUB DUP2 ADD SWAP1 PUSH2 0x159 SWAP2 SWAP1 PUSH2 0xC65 JUMP JUMPDEST PUSH2 0x9D3 JUMP JUMPDEST PUSH1 0x40 MLOAD PUSH2 0x16B SWAP2 SWAP1 PUSH2 0x1111 JUMP JUMPDEST PUSH1 0x40 MLOAD DUP1 SWAP2 SUB SWAP1 RETURN JUMPDEST PUSH1 0x1 PUSH1 0x20 MSTORE DUP1 PUSH1 0x0 MSTORE PUSH1 0x40 PUSH1 0x0 KECCAK256 PUSH1 0x0 SWAP2 POP SWAP1 POP DUP1 PUSH1 0x0 ADD SLOAD SWAP1 DUP1 PUSH1 0x1 ADD PUSH1 0x0 SWAP1 SLOAD SWAP1 PUSH2 0x100 EXP SWAP1 DIV PUSH20 0xFFFFFFFFFFFFFFFFFFFFFFFFFFFFFFFFFFFFFFFF AND SWAP1 DUP1 PUSH1 0x2 ADD PUSH1 0x0 SWAP1 SLOAD SWAP1 PUSH2 0x100 EXP SWAP1 DIV PUSH20 0xFFFFFFFFFFFFFFFFFFFFFFFFFFFFFFFFFFFFFFFF AND SWAP1 DUP1 PUSH1 0x3 ADD SLOAD SWAP1 DUP1 PUSH1 0x4 ADD DUP1 SLOAD PUSH2 0x1EF SWAP1 PUSH2 0x1162 JUMP JUMPDEST DUP1 PUSH1 0x1F ADD PUSH1 0x20 DUP1 SWAP2 DIV MUL PUSH1 0x20 ADD PUSH1 0x40 MLOAD SWAP1 DUP2 ADD PUSH1 0x40 MSTORE DUP1 SWAP3 SWAP2 SWAP1 DUP2 DUP2 MSTORE PUSH1 0x20 ADD DUP3 DUP1 SLOAD PUSH2 0x21B SWAP1 PUSH2 0x1162 JUMP JUMPDEST DUP1 ISZERO PUSH2 0x268 JUMPI DUP1 PUSH1 0x1F LT PUSH2 0x23D JUMPI PUSH2 0x100 DUP1 DUP4 SLOAD DIV MUL DUP4 MSTORE SWAP2 PUSH1 0x20 ADD SWAP2 PUSH2 0x268 JUMP JUMPDEST DUP3 ADD SWAP2 SWAP1 PUSH1 0x0 MSTORE PUSH1 0x20 PUSH1 0x0 KECCAK256 SWAP1 JUMPDEST DUP2 SLOAD DUP2 MSTORE SWAP1 PUSH1 0x1 ADD SWAP1 PUSH1 0x20 ADD DUP1 DUP4 GT PUSH2 0x24B JUMPI DUP3 SWAP1 SUB PUSH1 0x1F AND DUP3 ADD SWAP2 JUMPDEST POP POP POP POP POP SWAP1 DUP1 PUSH1 0x5 ADD PUSH1 0x0 SWAP1 SLOAD SWAP1 PUSH2 0x100 EXP SWAP1 DIV PUSH1 0xFF AND SWAP1 DUP1 PUSH1 0x5 ADD PUSH1 0x1 SWAP1 SLOAD SWAP1 PUSH2 0x100 EXP SWAP1 DIV PUSH1 0xFF AND SWAP1 DUP1 PUSH1 0x5 ADD PUSH1 0x2 SWAP1 SLOAD SWAP1 PUSH2 0x100 EXP SWAP1 DIV PUSH1 0xFF AND SWAP1 POP DUP9 JUMP JUMPDEST PUSH1 0x0 SLOAD DUP2 JUMP JUMPDEST PUSH1 0x0 PUSH1 0x1 PUSH1 0x0 DUP4 DUP2 MSTORE PUSH1 0x20 ADD SWAP1 DUP2 MSTORE PUSH1 0x20 ADD PUSH1 0x0 KECCAK256 SWAP1 POP DUP1 PUSH1 0x5 ADD PUSH1 0x2 SWAP1 SLOAD SWAP1 PUSH2 0x100 EXP SWAP1 DIV PUSH1 0xFF AND PUSH2 0x319 JUMPI PUSH1 0x40 MLOAD PUSH32 0x8C379A000000000000000000000000000000000000000000000000000000000 DUP2 MSTORE PUSH1 0x4 ADD PUSH2 0x310 SWAP1 PUSH2 0x11DF JUMP JUMPDEST PUSH1 0x40 MLOAD DUP1 SWAP2 SUB SWAP1 REVERT JUMPDEST DUP1 PUSH1 0x1 ADD PUSH1 0x0 SWAP1 SLOAD SWAP1 PUSH2 0x100 EXP SWAP1 DIV PUSH20 0xFFFFFFFFFFFFFFFFFFFFFFFFFFFFFFFFFFFFFFFF AND PUSH20 0xFFFFFFFFFFFFFFFFFFFFFFFFFFFFFFFFFFFFFFFF AND CALLER PUSH20 0xFFFFFFFFFFFFFFFFFFFFFFFFFFFFFFFFFFFFFFFF AND EQ PUSH2 0x3AB JUMPI PUSH1 0x40 MLOAD PUSH32 0x8C379A000000000000000000000000000000000000000000000000000000000 DUP2 MSTORE PUSH1 0x4 ADD PUSH2 0x3A2 SWAP1 PUSH2 0x124B JUMP JUMPDEST PUSH1 0x40 MLOAD DUP1 SWAP2 SUB SWAP1 REVERT JUMPDEST DUP1 PUSH1 0x5 ADD PUSH1 0x0 SWAP1 SLOAD SWAP1 PUSH2 0x100 EXP SWAP1 DIV PUSH1 0xFF AND PUSH2 0x3FC JUMPI PUSH1 0x40 MLOAD PUSH32 0x8C379A000000000000000000000000000000000000000000000000000000000 DUP2 MSTORE PUSH1 0x4 ADD PUSH2 0x3F3 SWAP1 PUSH2 0x12B7 JUMP JUMPDEST PUSH1 0x40 MLOAD DUP1 SWAP2 SUB SWAP1 REVERT JUMPDEST DUP1 PUSH1 0x5 ADD PUSH1 0x1 SWAP1 SLOAD SWAP1 PUSH2 0x100 EXP SWAP1 DIV PUSH1 0xFF AND ISZERO PUSH2 0x44E JUMPI PUSH1 0x40 MLOAD PUSH32 0x8C379A000000000000000000000000000000000000000000000000000000000 DUP2 MSTORE PUSH1 0x4 ADD PUSH2 0x445 SWAP1 PUSH2 0x1323 JUMP JUMPDEST PUSH1 0x40 MLOAD DUP1 SWAP2 SUB SWAP1 REVERT JUMPDEST PUSH1 0x1 DUP2 PUSH1 0x5 ADD PUSH1 0x1 PUSH2 0x100 EXP DUP2 SLOAD DUP2 PUSH1 0xFF MUL NOT AND SWAP1 DUP4 ISZERO ISZERO MUL OR SWAP1 SSTORE POP PUSH1 0x0 DUP2 PUSH1 0x2 ADD PUSH1 0x0 SWAP1 SLOAD SWAP1 PUSH2 0x100 EXP SWAP1 DIV PUSH20 0xFFFFFFFFFFFFFFFFFFFFFFFFFFFFFFFFFFFFFFFF AND PUSH20 0xFFFFFFFFFFFFFFFFFFFFFFFFFFFFFFFFFFFFFFFF AND DUP3 PUSH1 0x3 ADD SLOAD PUSH1 0x40 MLOAD PUSH2 0x4B9 SWAP1 PUSH2 0x1374 JUMP JUMPDEST PUSH1 0x0 PUSH1 0x40 MLOAD DUP1 DUP4 SUB DUP2 DUP6 DUP8 GAS CALL SWAP3 POP POP POP RETURNDATASIZE DUP1 PUSH1 0x0 DUP2 EQ PUSH2 0x4F6 JUMPI PUSH1 0x40 MLOAD SWAP2 POP PUSH1 0x1F NOT PUSH1 0x3F RETURNDATASIZE ADD AND DUP3 ADD PUSH1 0x40 MSTORE RETURNDATASIZE DUP3 MSTORE RETURNDATASIZE PUSH1 0x0 PUSH1 0x20 DUP5 ADD RETURNDATACOPY PUSH2 0x4FB JUMP JUMPDEST PUSH1 0x60 SWAP2 POP JUMPDEST POP POP SWAP1 POP DUP1 PUSH2 0x53F JUMPI PUSH1 0x40 MLOAD PUSH32 0x8C379A000000000000000000000000000000000000000000000000000000000 DUP2 MSTORE PUSH1 0x4 ADD PUSH2 0x536 SWAP1 PUSH2 0x13D5 JUMP JUMPDEST PUSH1 0x40 MLOAD DUP1 SWAP2 SUB SWAP1 REVERT JUMPDEST PUSH32 0xC8EF479ACDBFFD729D96117B951D1C3EE85D98EF42699AEC806BC4F0B522461D DUP4 DUP4 PUSH1 0x3 ADD SLOAD PUSH1 0x40 MLOAD PUSH2 0x574 SWAP3 SWAP2 SWAP1 PUSH2 0x13F5 JUMP JUMPDEST PUSH1 0x40 MLOAD DUP1 SWAP2 SUB SWAP1 LOG1 POP POP POP JUMP JUMPDEST PUSH1 0x0 CALLVALUE GT PUSH2 0x5C4 JUMPI PUSH1 0x40 MLOAD PUSH32 0x8C379A000000000000000000000000000000000000000000000000000000000 DUP2 MSTORE PUSH1 0x4 ADD PUSH2 0x5BB SWAP1 PUSH2 0x146A JUMP JUMPDEST PUSH1 0x40 MLOAD DUP1 SWAP2 SUB SWAP1 REVERT JUMPDEST PUSH1 0x0 PUSH20 0xFFFFFFFFFFFFFFFFFFFFFFFFFFFFFFFFFFFFFFFF AND DUP3 PUSH20 0xFFFFFFFFFFFFFFFFFFFFFFFFFFFFFFFFFFFFFFFF AND SUB PUSH2 0x633 JUMPI PUSH1 0x40 MLOAD PUSH32 0x8C379A000000000000000000000000000000000000000000000000000000000 DUP2 MSTORE PUSH1 0x4 ADD PUSH2 0x62A SWAP1 PUSH2 0x14D6 JUMP JUMPDEST PUSH1 0x40 MLOAD DUP1 SWAP2 SUB SWAP1 REVERT JUMPDEST PUSH1 0x0 DUP1 DUP2 SLOAD DUP1 SWAP3 SWAP2 SWAP1 PUSH2 0x645 SWAP1 PUSH2 0x1525 JUMP JUMPDEST SWAP2 SWAP1 POP SSTORE POP PUSH1 0x40 MLOAD DUP1 PUSH2 0x100 ADD PUSH1 0x40 MSTORE DUP1 PUSH1 0x0 SLOAD DUP2 MSTORE PUSH1 0x20 ADD CALLER PUSH20 0xFFFFFFFFFFFFFFFFFFFFFFFFFFFFFFFFFFFFFFFF AND DUP2 MSTORE PUSH1 0x20 ADD DUP4 PUSH20 0xFFFFFFFFFFFFFFFFFFFFFFFFFFFFFFFFFFFFFFFF AND DUP2 MSTORE PUSH1 0x20 ADD CALLVALUE DUP2 MSTORE PUSH1 0x20 ADD DUP3 DUP2 MSTORE PUSH1 0x20 ADD PUSH1 0x0 ISZERO ISZERO DUP2 MSTORE PUSH1 0x20 ADD PUSH1 0x0 ISZERO ISZERO DUP2 MSTORE PUSH1 0x20 ADD PUSH1 0x1 ISZERO ISZERO DUP2 MSTORE POP PUSH1 0x1 PUSH1 0x0 DUP1 SLOAD DUP2 MSTORE PUSH1 0x20 ADD SWAP1 DUP2 MSTORE PUSH1 0x20 ADD PUSH1 0x0 KECCAK256 PUSH1 0x0 DUP3 ADD MLOAD DUP2 PUSH1 0x0 ADD SSTORE PUSH1 0x20 DUP3 ADD MLOAD DUP2 PUSH1 0x1 ADD PUSH1 0x0 PUSH2 0x100 EXP DUP2 SLOAD DUP2 PUSH20 0xFFFFFFFFFFFFFFFFFFFFFFFFFFFFFFFFFFFFFFFF MUL NOT AND SWAP1 DUP4 PUSH20 0xFFFFFFFFFFFFFFFFFFFFFFFFFFFFFFFFFFFFFFFF AND MUL OR SWAP1 SSTORE POP PUSH1 0x40 DUP3 ADD MLOAD DUP2 PUSH1 0x2 ADD PUSH1 0x0 PUSH2 0x100 EXP DUP2 SLOAD DUP2 PUSH20 0xFFFFFFFFFFFFFFFFFFFFFFFFFFFFFFFFFFFFFFFF MUL NOT AND SWAP1 DUP4 PUSH20 0xFFFFFFFFFFFFFFFFFFFFFFFFFFFFFFFFFFFFFFFF AND MUL OR SWAP1 SSTORE POP PUSH1 0x60 DUP3 ADD MLOAD DUP2 PUSH1 0x3 ADD SSTORE PUSH1 0x80 DUP3 ADD MLOAD DUP2 PUSH1 0x4 ADD SWAP1 DUP2 PUSH2 0x786 SWAP2 SWAP1 PUSH2 0x1719 JUMP JUMPDEST POP PUSH1 0xA0 DUP3 ADD MLOAD DUP2 PUSH1 0x5 ADD PUSH1 0x0 PUSH2 0x100 EXP DUP2 SLOAD DUP2 PUSH1 0xFF MUL NOT AND SWAP1 DUP4 ISZERO ISZERO MUL OR SWAP1 SSTORE POP PUSH1 0xC0 DUP3 ADD MLOAD DUP2 PUSH1 0x5 ADD PUSH1 0x1 PUSH2 0x100 EXP DUP2 SLOAD DUP2 PUSH1 0xFF MUL NOT AND SWAP1 DUP4 ISZERO ISZERO MUL OR SWAP1 SSTORE POP PUSH1 0xE0 DUP3 ADD MLOAD DUP2 PUSH1 0x5 ADD PUSH1 0x2 PUSH2 0x100 EXP DUP2 SLOAD DUP2 PUSH1 0xFF MUL NOT AND SWAP1 DUP4 ISZERO ISZERO MUL OR SWAP1 SSTORE POP SWAP1 POP POP PUSH32 0xFB6937F1C195F216DFF342A846C276A08AD09CCC4A26142DAB31C3E8C6EF2444 PUSH1 0x0 SLOAD CALLER DUP5 CALLVALUE DUP6 PUSH1 0x40 MLOAD PUSH2 0x823 SWAP6 SWAP5 SWAP4 SWAP3 SWAP2 SWAP1 PUSH2 0x17EB JUMP JUMPDEST PUSH1 0x40 MLOAD DUP1 SWAP2 SUB SWAP1 LOG1 POP POP JUMP JUMPDEST PUSH1 0x0 PUSH1 0x1 PUSH1 0x0 DUP4 DUP2 MSTORE PUSH1 0x20 ADD SWAP1 DUP2 MSTORE PUSH1 0x20 ADD PUSH1 0x0 KECCAK256 SWAP1 POP DUP1 PUSH1 0x5 ADD PUSH1 0x2 SWAP1 SLOAD SWAP1 PUSH2 0x100 EXP SWAP1 DIV PUSH1 0xFF AND PUSH2 0x897 JUMPI PUSH1 0x40 MLOAD PUSH32 0x8C379A000000000000000000000000000000000000000000000000000000000 DUP2 MSTORE PUSH1 0x4 ADD PUSH2 0x88E SWAP1 PUSH2 0x11DF JUMP JUMPDEST PUSH1 0x40 MLOAD DUP1 SWAP2 SUB SWAP1 REVERT JUMPDEST DUP1 PUSH1 0x2 ADD PUSH1 0x0 SWAP1 SLOAD SWAP1 PUSH2 0x100 EXP SWAP1 DIV PUSH20 0xFFFFFFFFFFFFFFFFFFFFFFFFFFFFFFFFFFFFFFFF AND PUSH20 0xFFFFFFFFFFFFFFFFFFFFFFFFFFFFFFFFFFFFFFFF AND CALLER PUSH20 0xFFFFFFFFFFFFFFFFFFFFFFFFFFFFFFFFFFFFFFFF AND EQ PUSH2 0x929 JUMPI PUSH1 0x40 MLOAD PUSH32 0x8C379A000000000000000000000000000000000000000000000000000000000 DUP2 MSTORE PUSH1 0x4 ADD PUSH2 0x920 SWAP1 PUSH2 0x1891 JUMP JUMPDEST PUSH1 0x40 MLOAD DUP1 SWAP2 SUB SWAP1 REVERT JUMPDEST DUP1 PUSH1 0x5 ADD PUSH1 0x0 SWAP1 SLOAD SWAP1 PUSH2 0x100 EXP SWAP1 DIV PUSH1 0xFF AND ISZERO PUSH2 0x97B JUMPI PUSH1 0x40 MLOAD PUSH32 0x8C379A000000000000000000000000000000000000000000000000000000000 DUP2 MSTORE PUSH1 0x4 ADD PUSH2 0x972 SWAP1 PUSH2 0x18FD JUMP JUMPDEST PUSH1 0x40 MLOAD DUP1 SWAP2 SUB SWAP1 REVERT JUMPDEST PUSH1 0x1 DUP2 PUSH1 0x5 ADD PUSH1 0x0 PUSH2 0x100 EXP DUP2 SLOAD DUP2 PUSH1 0xFF MUL NOT AND SWAP1 DUP4 ISZERO ISZERO MUL OR SWAP1 SSTORE POP PUSH32 0xDFA3DD1A18E19F2E971FEBEB0D2668331BF8EAD550FFC52FA0954B80D7321E5B DUP3 PUSH1 0x40 MLOAD PUSH2 0x9C7 SWAP2 SWAP1 PUSH2 0xE12 JUMP JUMPDEST PUSH1 0x40 MLOAD DUP1 SWAP2 SUB SWAP1 LOG1 POP POP JUMP JUMPDEST PUSH2 0x9DB PUSH2 0xBA4 JUMP JUMPDEST PUSH1 0x1 PUSH1 0x0 DUP4 DUP2 MSTORE PUSH1 0x20 ADD SWAP1 DUP2 MSTORE PUSH1 0x20 ADD PUSH1 0x0 KECCAK256 PUSH1 0x40 MLOAD DUP1 PUSH2 0x100 ADD PUSH1 0x40 MSTORE SWAP1 DUP2 PUSH1 0x0 DUP3 ADD SLOAD DUP2 MSTORE PUSH1 0x20 ADD PUSH1 0x1 DUP3 ADD PUSH1 0x0 SWAP1 SLOAD SWAP1 PUSH2 0x100 EXP SWAP1 DIV PUSH20 0xFFFFFFFFFFFFFFFFFFFFFFFFFFFFFFFFFFFFFFFF AND PUSH20 0xFFFFFFFFFFFFFFFFFFFFFFFFFFFFFFFFFFFFFFFF AND PUSH20 0xFFFFFFFFFFFFFFFFFFFFFFFFFFFFFFFFFFFFFFFF AND DUP2 MSTORE PUSH1 0x20 ADD PUSH1 0x2 DUP3 ADD PUSH1 0x0 SWAP1 SLOAD SWAP1 PUSH2 0x100 EXP SWAP1 DIV PUSH20 0xFFFFFFFFFFFFFFFFFFFFFFFFFFFFFFFFFFFFFFFF AND PUSH20 0xFFFFFFFFFFFFFFFFFFFFFFFFFFFFFFFFFFFFFFFF AND PUSH20 0xFFFFFFFFFFFFFFFFFFFFFFFFFFFFFFFFFFFFFFFF AND DUP2 MSTORE PUSH1 0x20 ADD PUSH1 0x3 DUP3 ADD SLOAD DUP2 MSTORE PUSH1 0x20 ADD PUSH1 0x4 DUP3 ADD DUP1 SLOAD PUSH2 0xACA SWAP1 PUSH2 0x1162 JUMP JUMPDEST DUP1 PUSH1 0x1F ADD PUSH1 0x20 DUP1 SWAP2 DIV MUL PUSH1 0x20 ADD PUSH1 0x40 MLOAD SWAP1 DUP2 ADD PUSH1 0x40 MSTORE DUP1 SWAP3 SWAP2 SWAP1 DUP2 DUP2 MSTORE PUSH1 0x20 ADD DUP3 DUP1 SLOAD PUSH2 0xAF6 SWAP1 PUSH2 0x1162 JUMP JUMPDEST DUP1 ISZERO PUSH2 0xB43 JUMPI DUP1 PUSH1 0x1F LT PUSH2 0xB18 JUMPI PUSH2 0x100 DUP1 DUP4 SLOAD DIV MUL DUP4 MSTORE SWAP2 PUSH1 0x20 ADD SWAP2 PUSH2 0xB43 JUMP JUMPDEST DUP3 ADD SWAP2 SWAP1 PUSH1 0x0 MSTORE PUSH1 0x20 PUSH1 0x0 KECCAK256 SWAP1 JUMPDEST DUP2 SLOAD DUP2 MSTORE SWAP1 PUSH1 0x1 ADD SWAP1 PUSH1 0x20 ADD DUP1 DUP4 GT PUSH2 0xB26 JUMPI DUP3 SWAP1 SUB PUSH1 0x1F AND DUP3 ADD SWAP2 JUMPDEST POP POP POP POP POP DUP2 MSTORE PUSH1 0x20 ADD PUSH1 0x5 DUP3 ADD PUSH1 0x0 SWAP1 SLOAD SWAP1 PUSH2 0x100 EXP SWAP1 DIV PUSH1 0xFF AND ISZERO ISZERO ISZERO ISZERO DUP2 MSTORE PUSH1 0x20 ADD PUSH1 0x5 DUP3 ADD PUSH1 0x1 SWAP1 SLOAD SWAP1 PUSH2 0x100 EXP SWAP1 DIV PUSH1 0xFF AND ISZERO ISZERO ISZERO ISZERO DUP2 MSTORE PUSH1 0x20 ADD PUSH1 0x5 DUP3 ADD PUSH1 0x2 SWAP1 SLOAD SWAP1 PUSH2 0x100 EXP SWAP1 DIV PUSH1 0xFF AND ISZERO ISZERO ISZERO ISZERO DUP2 MSTORE POP POP SWAP1 POP SWAP2 SWAP1 POP JUMP JUMPDEST PUSH1 0x40 MLOAD DUP1 PUSH2 0x100 ADD PUSH1 0x40 MSTORE DUP1 PUSH1 0x0 DUP2 MSTORE PUSH1 0x20 ADD PUSH1 0x0 PUSH20 0xFFFFFFFFFFFFFFFFFFFFFFFFFFFFFFFFFFFFFFFF AND DUP2 MSTORE PUSH1 0x20 ADD PUSH1 0x0 PUSH20 0xFFFFFFFFFFFFFFFFFFFFFFFFFFFFFFFFFFFFFFFF AND DUP2 MSTORE PUSH1 0x20 ADD PUSH1 0x0 DUP2 MSTORE PUSH1 0x20 ADD PUSH1 0x60 DUP2 MSTORE PUSH1 0x20 ADD PUSH1 0x0 ISZERO ISZERO DUP2 MSTORE PUSH1 0x20 ADD PUSH1 0x0 ISZERO ISZERO DUP2 MSTORE PUSH1 0x20 ADD PUSH1 0x0 ISZERO ISZERO DUP2 MSTORE POP SWAP1 JUMP JUMPDEST PUSH1 0x0 PUSH1 0x40 MLOAD SWAP1 POP SWAP1 JUMP JUMPDEST PUSH1 0x0 DUP1 REVERT JUMPDEST PUSH1 0x0 DUP1 REVERT JUMPDEST PUSH1 0x0 DUP2 SWAP1 POP SWAP2 SWAP1 POP JUMP JUMPDEST PUSH2 0xC42 DUP2 PUSH2 0xC2F JUMP JUMPDEST DUP2 EQ PUSH2 0xC4D JUMPI PUSH1 0x0 DUP1 REVERT JUMPDEST POP JUMP JUMPDEST PUSH1 0x0 DUP2 CALLDATALOAD SWAP1 POP PUSH2 0xC5F DUP2 PUSH2 0xC39 JUMP JUMPDEST SWAP3 SWAP2 POP POP JUMP JUMPDEST PUSH1 0x0 PUSH1 0x20 DUP3 DUP5 SUB SLT ISZERO PUSH2 0xC7B JUMPI PUSH2 0xC7A PUSH2 0xC25 JUMP JUMPDEST JUMPDEST PUSH1 0x0 PUSH2 0xC89 DUP5 DUP3 DUP6 ADD PUSH2 0xC50 JUMP JUMPDEST SWAP2 POP POP SWAP3 SWAP2 POP POP JUMP JUMPDEST PUSH2 0xC9B DUP2 PUSH2 0xC2F JUMP JUMPDEST DUP3 MSTORE POP POP JUMP JUMPDEST PUSH1 0x0 PUSH20 0xFFFFFFFFFFFFFFFFFFFFFFFFFFFFFFFFFFFFFFFF DUP3 AND SWAP1 POP SWAP2 SWAP1 POP JUMP JUMPDEST PUSH1 0x0 PUSH2 0xCCC DUP3 PUSH2 0xCA1 JUMP JUMPDEST SWAP1 POP SWAP2 SWAP1 POP JUMP JUMPDEST PUSH2 0xCDC DUP2 PUSH2 0xCC1 JUMP JUMPDEST DUP3 MSTORE POP POP JUMP JUMPDEST PUSH1 0x0 DUP2 MLOAD SWAP1 POP SWAP2 SWAP1 POP JUMP JUMPDEST PUSH1 0x0 DUP3 DUP3 MSTORE PUSH1 0x20 DUP3 ADD SWAP1 POP SWAP3 SWAP2 POP POP JUMP JUMPDEST PUSH1 0x0 JUMPDEST DUP4 DUP2 LT ISZERO PUSH2 0xD1C JUMPI DUP1 DUP3 ADD MLOAD DUP2 DUP5 ADD MSTORE PUSH1 0x20 DUP2 ADD SWAP1 POP PUSH2 0xD01 JUMP JUMPDEST PUSH1 0x0 DUP5 DUP5 ADD MSTORE POP POP POP POP JUMP JUMPDEST PUSH1 0x0 PUSH1 0x1F NOT PUSH1 0x1F DUP4 ADD AND SWAP1 POP SWAP2 SWAP1 POP JUMP JUMPDEST PUSH1 0x0 PUSH2 0xD44 DUP3 PUSH2 0xCE2 JUMP JUMPDEST PUSH2 0xD4E DUP2 DUP6 PUSH2 0xCED JUMP JUMPDEST SWAP4 POP PUSH2 0xD5E DUP2 DUP6 PUSH1 0x20 DUP7 ADD PUSH2 0xCFE JUMP JUMPDEST PUSH2 0xD67 DUP2 PUSH2 0xD28 JUMP JUMPDEST DUP5 ADD SWAP2 POP POP SWAP3 SWAP2 POP POP JUMP JUMPDEST PUSH1 0x0 DUP2 ISZERO ISZERO SWAP1 POP SWAP2 SWAP1 POP JUMP JUMPDEST PUSH2 0xD87 DUP2 PUSH2 0xD72 JUMP JUMPDEST DUP3 MSTORE POP POP JUMP JUMPDEST PUSH1 0x0 PUSH2 0x100 DUP3 ADD SWAP1 POP PUSH2 0xDA3 PUSH1 0x0 DUP4 ADD DUP12 PUSH2 0xC92 JUMP JUMPDEST PUSH2 0xDB0 PUSH1 0x20 DUP4 ADD DUP11 PUSH2 0xCD3 JUMP JUMPDEST PUSH2 0xDBD PUSH1 0x40 DUP4 ADD DUP10 PUSH2 0xCD3 JUMP JUMPDEST PUSH2 0xDCA PUSH1 0x60 DUP4 ADD DUP9 PUSH2 0xC92 JUMP JUMPDEST DUP2 DUP2 SUB PUSH1 0x80 DUP4 ADD MSTORE PUSH2 0xDDC DUP2 DUP8 PUSH2 0xD39 JUMP JUMPDEST SWAP1 POP PUSH2 0xDEB PUSH1 0xA0 DUP4 ADD DUP7 PUSH2 0xD7E JUMP JUMPDEST PUSH2 0xDF8 PUSH1 0xC0 DUP4 ADD DUP6 PUSH2 0xD7E JUMP JUMPDEST PUSH2 0xE05 PUSH1 0xE0 DUP4 ADD DUP5 PUSH2 0xD7E JUMP JUMPDEST SWAP10 SWAP9 POP POP POP POP POP POP POP POP POP JUMP JUMPDEST PUSH1 0x0 PUSH1 0x20 DUP3 ADD SWAP1 POP PUSH2 0xE27 PUSH1 0x0 DUP4 ADD DUP5 PUSH2 0xC92 JUMP JUMPDEST SWAP3 SWAP2 POP POP JUMP JUMPDEST PUSH2 0xE36 DUP2 PUSH2 0xCC1 JUMP JUMPDEST DUP2 EQ PUSH2 0xE41 JUMPI PUSH1 0x0 DUP1 REVERT JUMPDEST POP JUMP JUMPDEST PUSH1 0x0 DUP2 CALLDATALOAD SWAP1 POP PUSH2 0xE53 DUP2 PUSH2 0xE2D JUMP JUMPDEST SWAP3 SWAP2 POP POP JUMP JUMPDEST PUSH1 0x0 DUP1 REVERT JUMPDEST PUSH1 0x0 DUP1 REVERT JUMPDEST PUSH32 0x4E487B7100000000000000000000000000000000000000000000000000000000 PUSH1 0x0 MSTORE PUSH1 0x41 PUSH1 0x4 MSTORE PUSH1 0x24 PUSH1 0x0 REVERT JUMPDEST PUSH2 0xE9B DUP3 PUSH2 0xD28 JUMP JUMPDEST DUP2 ADD DUP2 DUP2 LT PUSH8 0xFFFFFFFFFFFFFFFF DUP3 GT OR ISZERO PUSH2 0xEBA JUMPI PUSH2 0xEB9 PUSH2 0xE63 JUMP JUMPDEST JUMPDEST DUP1 PUSH1 0x40 MSTORE POP POP POP JUMP JUMPDEST PUSH1 0x0 PUSH2 0xECD PUSH2 0xC1B JUMP JUMPDEST SWAP1 POP PUSH2 0xED9 DUP3 DUP3 PUSH2 0xE92 JUMP JUMPDEST SWAP2 SWAP1 POP JUMP JUMPDEST PUSH1 0x0 PUSH8 0xFFFFFFFFFFFFFFFF DUP3 GT ISZERO PUSH2 0xEF9 JUMPI PUSH2 0xEF8 PUSH2 0xE63 JUMP JUMPDEST JUMPDEST PUSH2 0xF02 DUP3 PUSH2 0xD28 JUMP JUMPDEST SWAP1 POP PUSH1 0x20 DUP2 ADD SWAP1 POP SWAP2 SWAP1 POP JUMP JUMPDEST DUP3 DUP2 DUP4 CALLDATACOPY PUSH1 0x0 DUP4 DUP4 ADD MSTORE POP POP POP JUMP JUMPDEST PUSH1 0x0 PUSH2 0xF31 PUSH2 0xF2C DUP5 PUSH2 0xEDE JUMP JUMPDEST PUSH2 0xEC3 JUMP JUMPDEST SWAP1 POP DUP3 DUP2 MSTORE PUSH1 0x20 DUP2 ADD DUP5 DUP5 DUP5 ADD GT ISZERO PUSH2 0xF4D JUMPI PUSH2 0xF4C PUSH2 0xE5E JUMP JUMPDEST JUMPDEST PUSH2 0xF58 DUP5 DUP3 DUP6 PUSH2 0xF0F JUMP JUMPDEST POP SWAP4 SWAP3 POP POP POP JUMP JUMPDEST PUSH1 0x0 DUP3 PUSH1 0x1F DUP4 ADD SLT PUSH2 0xF75 JUMPI PUSH2 0xF74 PUSH2 0xE59 JUMP JUMPDEST JUMPDEST DUP2 CALLDATALOAD PUSH2 0xF85 DUP5 DUP3 PUSH1 0x20 DUP7 ADD PUSH2 0xF1E JUMP JUMPDEST SWAP2 POP POP SWAP3 SWAP2 POP POP JUMP JUMPDEST PUSH1 0x0 DUP1 PUSH1 0x40 DUP4 DUP6 SUB SLT ISZERO PUSH2 0xFA5 JUMPI PUSH2 0xFA4 PUSH2 0xC25 JUMP JUMPDEST JUMPDEST PUSH1 0x0 PUSH2 0xFB3 DUP6 DUP3 DUP7 ADD PUSH2 0xE44 JUMP JUMPDEST SWAP3 POP POP PUSH1 0x20 DUP4 ADD CALLDATALOAD PUSH8 0xFFFFFFFFFFFFFFFF DUP2 GT ISZERO PUSH2 0xFD4 JUMPI PUSH2 0xFD3 PUSH2 0xC2A JUMP JUMPDEST JUMPDEST PUSH2 0xFE0 DUP6 DUP3 DUP7 ADD PUSH2 0xF60 JUMP JUMPDEST SWAP2 POP POP SWAP3 POP SWAP3 SWAP1 POP JUMP JUMPDEST PUSH2 0xFF3 DUP2 PUSH2 0xC2F JUMP JUMPDEST DUP3 MSTORE POP POP JUMP JUMPDEST PUSH2 0x1002 DUP2 PUSH2 0xCC1 JUMP JUMPDEST DUP3 MSTORE POP POP JUMP JUMPDEST PUSH1 0x0 DUP3 DUP3 MSTORE PUSH1 0x20 DUP3 ADD SWAP1 POP SWAP3 SWAP2 POP POP JUMP JUMPDEST PUSH1 0x0 PUSH2 0x1024 DUP3 PUSH2 0xCE2 JUMP JUMPDEST PUSH2 0x102E DUP2 DUP6 PUSH2 0x1008 JUMP JUMPDEST SWAP4 POP PUSH2 0x103E DUP2 DUP6 PUSH1 0x20 DUP7 ADD PUSH2 0xCFE JUMP JUMPDEST PUSH2 0x1047 DUP2 PUSH2 0xD28 JUMP JUMPDEST DUP5 ADD SWAP2 POP POP SWAP3 SWAP2 POP POP JUMP JUMPDEST PUSH2 0x105B DUP2 PUSH2 0xD72 JUMP JUMPDEST DUP3 MSTORE POP POP JUMP JUMPDEST PUSH1 0x0 PUSH2 0x100 DUP4 ADD PUSH1 0x0 DUP4 ADD MLOAD PUSH2 0x107A PUSH1 0x0 DUP7 ADD DUP3 PUSH2 0xFEA JUMP JUMPDEST POP PUSH1 0x20 DUP4 ADD MLOAD PUSH2 0x108D PUSH1 0x20 DUP7 ADD DUP3 PUSH2 0xFF9 JUMP JUMPDEST POP PUSH1 0x40 DUP4 ADD MLOAD PUSH2 0x10A0 PUSH1 0x40 DUP7 ADD DUP3 PUSH2 0xFF9 JUMP JUMPDEST POP PUSH1 0x60 DUP4 ADD MLOAD PUSH2 0x10B3 PUSH1 0x60 DUP7 ADD DUP3 PUSH2 0xFEA JUMP JUMPDEST POP PUSH1 0x80 DUP4 ADD MLOAD DUP5 DUP3 SUB PUSH1 0x80 DUP7 ADD MSTORE PUSH2 0x10CB DUP3 DUP3 PUSH2 0x1019 JUMP JUMPDEST SWAP2 POP POP PUSH1 0xA0 DUP4 ADD MLOAD PUSH2 0x10E0 PUSH1 0xA0 DUP7 ADD DUP3 PUSH2 0x1052 JUMP JUMPDEST POP PUSH1 0xC0 DUP4 ADD MLOAD PUSH2 0x10F3 PUSH1 0xC0 DUP7 ADD DUP3 PUSH2 0x1052 JUMP JUMPDEST POP PUSH1 0xE0 DUP4 ADD MLOAD PUSH2 0x1106 PUSH1 0xE0 DUP7 ADD DUP3 PUSH2 0x1052 JUMP JUMPDEST POP DUP1 SWAP2 POP POP SWAP3 SWAP2 POP POP JUMP JUMPDEST PUSH1 0x0 PUSH1 0x20 DUP3 ADD SWAP1 POP DUP2 DUP2 SUB PUSH1 0x0 DUP4 ADD MSTORE PUSH2 0x112B DUP2 DUP5 PUSH2 0x1061 JUMP JUMPDEST SWAP1 POP SWAP3 SWAP2 POP POP JUMP JUMPDEST PUSH32 0x4E487B7100000000000000000000000000000000000000000000000000000000 PUSH1 0x0 MSTORE PUSH1 0x22 PUSH1 0x4 MSTORE PUSH1 0x24 PUSH1 0x0 REVERT JUMPDEST PUSH1 0x0 PUSH1 0x2 DUP3 DIV SWAP1 POP PUSH1 0x1 DUP3 AND DUP1 PUSH2 0x117A JUMPI PUSH1 0x7F DUP3 AND SWAP2 POP JUMPDEST PUSH1 0x20 DUP3 LT DUP2 SUB PUSH2 0x118D JUMPI PUSH2 0x118C PUSH2 0x1133 JUMP JUMPDEST JUMPDEST POP SWAP2 SWAP1 POP JUMP JUMPDEST PUSH32 0x50726F6A65637420646F6573206E6F7420657869737400000000000000000000 PUSH1 0x0 DUP3 ADD MSTORE POP JUMP JUMPDEST PUSH1 0x0 PUSH2 0x11C9 PUSH1 0x16 DUP4 PUSH2 0xCED JUMP JUMPDEST SWAP2 POP PUSH2 0x11D4 DUP3 PUSH2 0x1193 JUMP JUMPDEST PUSH1 0x20 DUP3 ADD SWAP1 POP SWAP2 SWAP1 POP JUMP JUMPDEST PUSH1 0x0 PUSH1 0x20 DUP3 ADD SWAP1 POP DUP2 DUP2 SUB PUSH1 0x0 DUP4 ADD MSTORE PUSH2 0x11F8 DUP2 PUSH2 0x11BC JUMP JUMPDEST SWAP1 POP SWAP2 SWAP1 POP JUMP JUMPDEST PUSH32 0x4F6E6C7920636C69656E742063616E2072656C656173652066756E6473000000 PUSH1 0x0 DUP3 ADD MSTORE POP JUMP JUMPDEST PUSH1 0x0 PUSH2 0x1235 PUSH1 0x1D DUP4 PUSH2 0xCED JUMP JUMPDEST SWAP2 POP PUSH2 0x1240 DUP3 PUSH2 0x11FF JUMP JUMPDEST PUSH1 0x20 DUP3 ADD SWAP1 POP SWAP2 SWAP1 POP JUMP JUMPDEST PUSH1 0x0 PUSH1 0x20 DUP3 ADD SWAP1 POP DUP2 DUP2 SUB PUSH1 0x0 DUP4 ADD MSTORE PUSH2 0x1264 DUP2 PUSH2 0x1228 JUMP JUMPDEST SWAP1 POP SWAP2 SWAP1 POP JUMP JUMPDEST PUSH32 0x576F726B206E6F7420636F6D706C657465642079657400000000000000000000 PUSH1 0x0 DUP3 ADD MSTORE POP JUMP JUMPDEST PUSH1 0x0 PUSH2 0x12A1 PUSH1 0x16 DUP4 PUSH2 0xCED JUMP JUMPDEST SWAP2 POP PUSH2 0x12AC DUP3 PUSH2 0x126B JUMP JUMPDEST PUSH1 0x20 DUP3 ADD SWAP1 POP SWAP2 SWAP1 POP JUMP JUMPDEST PUSH1 0x0 PUSH1 0x20 DUP3 ADD SWAP1 POP DUP2 DUP2 SUB PUSH1 0x0 DUP4 ADD MSTORE PUSH2 0x12D0 DUP2 PUSH2 0x1294 JUMP JUMPDEST SWAP1 POP SWAP2 SWAP1 POP JUMP JUMPDEST PUSH32 0x416C726561647920706169640000000000000000000000000000000000000000 PUSH1 0x0 DUP3 ADD MSTORE POP JUMP JUMPDEST PUSH1 0x0 PUSH2 0x130D PUSH1 0xC DUP4 PUSH2 0xCED JUMP JUMPDEST SWAP2 POP PUSH2 0x1318 DUP3 PUSH2 0x12D7 JUMP JUMPDEST PUSH1 0x20 DUP3 ADD SWAP1 POP SWAP2 SWAP1 POP JUMP JUMPDEST PUSH1 0x0 PUSH1 0x20 DUP3 ADD SWAP1 POP DUP2 DUP2 SUB PUSH1 0x0 DUP4 ADD MSTORE PUSH2 0x133C DUP2 PUSH2 0x1300 JUMP JUMPDEST SWAP1 POP SWAP2 SWAP1 POP JUMP JUMPDEST PUSH1 0x0 DUP2 SWAP1 POP SWAP3 SWAP2 POP POP JUMP JUMPDEST POP JUMP JUMPDEST PUSH1 0x0 PUSH2 0x135E PUSH1 0x0 DUP4 PUSH2 0x1343 JUMP JUMPDEST SWAP2 POP PUSH2 0x1369 DUP3 PUSH2 0x134E JUMP JUMPDEST PUSH1 0x0 DUP3 ADD SWAP1 POP SWAP2 SWAP1 POP JUMP JUMPDEST PUSH1 0x0 PUSH2 0x137F DUP3 PUSH2 0x1351 JUMP JUMPDEST SWAP2 POP DUP2 SWAP1 POP SWAP2 SWAP1 POP JUMP JUMPDEST PUSH32 0x5472616E73666572206661696C65640000000000000000000000000000000000 PUSH1 0x0 DUP3 ADD MSTORE POP JUMP JUMPDEST PUSH1 0x0 PUSH2 0x13BF PUSH1 0xF DUP4 PUSH2 0xCED JUMP JUMPDEST SWAP2 POP PUSH2 0x13CA DUP3 PUSH2 0x1389 JUMP JUMPDEST PUSH1 0x20 DUP3 ADD SWAP1 POP SWAP2 SWAP1 POP JUMP JUMPDEST PUSH1 0x0 PUSH1 0x20 DUP3 ADD SWAP1 POP DUP2 DUP2 SUB PUSH1 0x0 DUP4 ADD MSTORE PUSH2 0x13EE DUP2 PUSH2 0x13B2 JUMP JUMPDEST SWAP1 POP SWAP2 SWAP1 POP JUMP JUMPDEST PUSH1 0x0 PUSH1 0x40 DUP3 ADD SWAP1 POP PUSH2 0x140A PUSH1 0x0 DUP4 ADD DUP6 PUSH2 0xC92 JUMP JUMPDEST PUSH2 0x1417 PUSH1 0x20 DUP4 ADD DUP5 PUSH2 0xC92 JUMP JUMPDEST SWAP4 SWAP3 POP POP POP JUMP JUMPDEST PUSH32 0x5072696365206D7573742062652067726561746572207468616E203000000000 PUSH1 0x0 DUP3 ADD MSTORE POP JUMP JUMPDEST PUSH1 0x0 PUSH2 0x1454 PUSH1 0x1C DUP4 PUSH2 0xCED JUMP JUMPDEST SWAP2 POP PUSH2 0x145F DUP3 PUSH2 0x141E JUMP JUMPDEST PUSH1 0x20 DUP3 ADD SWAP1 POP SWAP2 SWAP1 POP JUMP JUMPDEST PUSH1 0x0 PUSH1 0x20 DUP3 ADD SWAP1 POP DUP2 DUP2 SUB PUSH1 0x0 DUP4 ADD MSTORE PUSH2 0x1483 DUP2 PUSH2 0x1447 JUMP JUMPDEST SWAP1 POP SWAP2 SWAP1 POP JUMP JUMPDEST PUSH32 0x496E76616C696420667265656C616E6365722061646472657373000000000000 PUSH1 0x0 DUP3 ADD MSTORE POP JUMP JUMPDEST PUSH1 0x0 PUSH2 0x14C0 PUSH1 0x1A DUP4 PUSH2 0xCED JUMP JUMPDEST SWAP2 POP PUSH2 0x14CB DUP3 PUSH2 0x148A JUMP JUMPDEST PUSH1 0x20 DUP3 ADD SWAP1 POP SWAP2 SWAP1 POP JUMP JUMPDEST PUSH1 0x0 PUSH1 0x20 DUP3 ADD SWAP1 POP DUP2 DUP2 SUB PUSH1 0x0 DUP4 ADD MSTORE PUSH2 0x14EF DUP2 PUSH2 0x14B3 JUMP JUMPDEST SWAP1 POP SWAP2 SWAP1 POP JUMP JUMPDEST PUSH32 0x4E487B7100000000000000000000000000000000000000000000000000000000 PUSH1 0x0 MSTORE PUSH1 0x11 PUSH1 0x4 MSTORE PUSH1 0x24 PUSH1 0x0 REVERT JUMPDEST PUSH1 0x0 PUSH2 0x1530 DUP3 PUSH2 0xC2F JUMP JUMPDEST SWAP2 POP PUSH32 0xFFFFFFFFFFFFFFFFFFFFFFFFFFFFFFFFFFFFFFFFFFFFFFFFFFFFFFFFFFFFFFFF DUP3 SUB PUSH2 0x1562 JUMPI PUSH2 0x1561 PUSH2 0x14F6 JUMP JUMPDEST JUMPDEST PUSH1 0x1 DUP3 ADD SWAP1 POP SWAP2 SWAP1 POP JUMP JUMPDEST PUSH1 0x0 DUP2 SWAP1 POP DUP2 PUSH1 0x0 MSTORE PUSH1 0x20 PUSH1 0x0 KECCAK256 SWAP1 POP SWAP2 SWAP1 POP JUMP JUMPDEST PUSH1 0x0 PUSH1 0x20 PUSH1 0x1F DUP4 ADD DIV SWAP1 POP SWAP2 SWAP1 POP JUMP JUMPDEST PUSH1 0x0 DUP3 DUP3 SHL SWAP1 POP SWAP3 SWAP2 POP POP JUMP JUMPDEST PUSH1 0x0 PUSH1 0x8 DUP4 MUL PUSH2 0x15CF PUSH32 0xFFFFFFFFFFFFFFFFFFFFFFFFFFFFFFFFFFFFFFFFFFFFFFFFFFFFFFFFFFFFFFFF DUP3 PUSH2 0x1592 JUMP JUMPDEST PUSH2 0x15D9 DUP7 DUP4 PUSH2 0x1592 JUMP JUMPDEST SWAP6 POP DUP1 NOT DUP5 AND SWAP4 POP DUP1 DUP7 AND DUP5 OR SWAP3 POP POP POP SWAP4 SWAP3 POP POP POP JUMP JUMPDEST PUSH1 0x0 DUP2 SWAP1 POP SWAP2 SWAP1 POP JUMP JUMPDEST PUSH1 0x0 PUSH2 0x1616 PUSH2 0x1611 PUSH2 0x160C DUP5 PUSH2 0xC2F JUMP JUMPDEST PUSH2 0x15F1 JUMP JUMPDEST PUSH2 0xC2F JUMP JUMPDEST SWAP1 POP SWAP2 SWAP1 POP JUMP JUMPDEST PUSH1 0x0 DUP2 SWAP1 POP SWAP2 SWAP1 POP JUMP JUMPDEST PUSH2 0x1630 DUP4 PUSH2 0x15FB JUMP JUMPDEST PUSH2 0x1644 PUSH2 0x163C DUP3 PUSH2 0x161D JUMP JUMPDEST DUP5 DUP5 SLOAD PUSH2 0x159F JUMP JUMPDEST DUP3 SSTORE POP POP POP POP JUMP JUMPDEST PUSH1 0x0 SWAP1 JUMP JUMPDEST PUSH2 0x1659 PUSH2 0x164C JUMP JUMPDEST PUSH2 0x1664 DUP2 DUP5 DUP5 PUSH2 0x1627 JUMP JUMPDEST POP POP POP JUMP JUMPDEST JUMPDEST DUP2 DUP2 LT ISZERO PUSH2 0x1688 JUMPI PUSH2 0x167D PUSH1 0x0 DUP3 PUSH2 0x1651 JUMP JUMPDEST PUSH1 0x1 DUP2 ADD SWAP1 POP PUSH2 0x166A JUMP JUMPDEST POP POP JUMP JUMPDEST PUSH1 0x1F DUP3 GT ISZERO PUSH2 0x16CD JUMPI PUSH2 0x169E DUP2 PUSH2 0x156D JUMP JUMPDEST PUSH2 0x16A7 DUP5 PUSH2 0x1582 JUMP JUMPDEST DUP2 ADD PUSH1 0x20 DUP6 LT ISZERO PUSH2 0x16B6 JUMPI DUP2 SWAP1 POP JUMPDEST PUSH2 0x16CA PUSH2 0x16C2 DUP6 PUSH2 0x1582 JUMP JUMPDEST DUP4 ADD DUP3 PUSH2 0x1669 JUMP JUMPDEST POP POP JUMPDEST POP POP POP JUMP JUMPDEST PUSH1 0x0 DUP3 DUP3 SHR SWAP1 POP SWAP3 SWAP2 POP POP JUMP JUMPDEST PUSH1 0x0 PUSH2 0x16F0 PUSH1 0x0 NOT DUP5 PUSH1 0x8 MUL PUSH2 0x16D2 JUMP JUMPDEST NOT DUP1 DUP4 AND SWAP2 POP POP SWAP3 SWAP2 POP POP JUMP JUMPDEST PUSH1 0x0 PUSH2 0x1709 DUP4 DUP4 PUSH2 0x16DF JUMP JUMPDEST SWAP2 POP DUP3 PUSH1 0x2 MUL DUP3 OR SWAP1 POP SWAP3 SWAP2 POP POP JUMP JUMPDEST PUSH2 0x1722 DUP3 PUSH2 0xCE2 JUMP JUMPDEST PUSH8 0xFFFFFFFFFFFFFFFF DUP2 GT ISZERO PUSH2 0x173B JUMPI PUSH2 0x173A PUSH2 0xE63 JUMP JUMPDEST JUMPDEST PUSH2 0x1745 DUP3 SLOAD PUSH2 0x1162 JUMP JUMPDEST PUSH2 0x1750 DUP3 DUP3 DUP6 PUSH2 0x168C JUMP JUMPDEST PUSH1 0x0 PUSH1 0x20 SWAP1 POP PUSH1 0x1F DUP4 GT PUSH1 0x1 DUP2 EQ PUSH2 0x1783 JUMPI PUSH1 0x0 DUP5 ISZERO PUSH2 0x1771 JUMPI DUP3 DUP8 ADD MLOAD SWAP1 POP JUMPDEST PUSH2 0x177B DUP6 DUP3 PUSH2 0x16FD JUMP JUMPDEST DUP7 SSTORE POP PUSH2 0x17E3 JUMP JUMPDEST PUSH1 0x1F NOT DUP5 AND PUSH2 0x1791 DUP7 PUSH2 0x156D JUMP JUMPDEST PUSH1 0x0 JUMPDEST DUP3 DUP2 LT ISZERO PUSH2 0x17B9 JUMPI DUP5 DUP10 ADD MLOAD DUP3 SSTORE PUSH1 0x1 DUP3 ADD SWAP2 POP PUSH1 0x20 DUP6 ADD SWAP5 POP PUSH1 0x20 DUP2 ADD SWAP1 POP PUSH2 0x1794 JUMP JUMPDEST DUP7 DUP4 LT ISZERO PUSH2 0x17D6 JUMPI DUP5 DUP10 ADD MLOAD PUSH2 0x17D2 PUSH1 0x1F DUP10 AND DUP3 PUSH2 0x16DF JUMP JUMPDEST DUP4 SSTORE POP JUMPDEST PUSH1 0x1 PUSH1 0x2 DUP9 MUL ADD DUP9 SSTORE POP POP POP JUMPDEST POP POP POP POP POP POP JUMP JUMPDEST PUSH1 0x0 PUSH1 0xA0 DUP3 ADD SWAP1 POP PUSH2 0x1800 PUSH1 0x0 DUP4 ADD DUP9 PUSH2 0xC92 JUMP JUMPDEST PUSH2 0x180D PUSH1 0x20 DUP4 ADD DUP8 PUSH2 0xCD3 JUMP JUMPDEST PUSH2 0x181A PUSH1 0x40 DUP4 ADD DUP7 PUSH2 0xCD3 JUMP JUMPDEST PUSH2 0x1827 PUSH1 0x60 DUP4 ADD DUP6 PUSH2 0xC92 JUMP JUMPDEST DUP2 DUP2 SUB PUSH1 0x80 DUP4 ADD MSTORE PUSH2 0x1839 DUP2 DUP5 PUSH2 0xD39 JUMP JUMPDEST SWAP1 POP SWAP7 SWAP6 POP POP POP POP POP POP JUMP JUMPDEST PUSH32 0x4F6E6C7920667265656C616E6365722063616E20636F6D706C65746500000000 PUSH1 0x0 DUP3 ADD MSTORE POP JUMP JUMPDEST PUSH1 0x0 PUSH2 0x187B PUSH1 0x1C DUP4 PUSH2 0xCED JUMP JUMPDEST SWAP2 POP PUSH2 0x1886 DUP3 PUSH2 0x1845 JUMP JUMPDEST PUSH1 0x20 DUP3 ADD SWAP1 POP SWAP2 SWAP1 POP JUMP JUMPDEST PUSH1 0x0 PUSH1 0x20 DUP3 ADD SWAP1 POP DUP2 DUP2 SUB PUSH1 0x0 DUP4 ADD MSTORE PUSH2 0x18AA DUP2 PUSH2 0x186E JUMP JUMPDEST SWAP1 POP SWAP2 SWAP1 POP JUMP JUMPDEST PUSH32 0x416C726561647920636F6D706C65746564000000000000000000000000000000 PUSH1 0x0 DUP3 ADD MSTORE POP JUMP JUMPDEST PUSH1 0x0 PUSH2 0x18E7 PUSH1 0x11 DUP4 PUSH2 0xCED JUMP JUMPDEST SWAP2 POP PUSH2 0x18F2 DUP3 PUSH2 0x18B1 JUMP JUMPDEST PUSH1 0x20 DUP3 ADD SWAP1 POP SWAP2 SWAP1 POP JUMP JUMPDEST PUSH1 0x0 PUSH1 0x20 DUP3 ADD SWAP1 POP DUP2 DUP2 SUB PUSH1 0x0 DUP4 ADD MSTORE PUSH2 0x1916 DUP2 PUSH2 0x18DA JUMP JUMPDEST SWAP1 POP SWAP2 SWAP1 POP JUMP INVALID LOG2 PUSH5 0x6970667358 0x22 SLT KECCAK256 0x22 DUP3 0xAE 0xF6 SHL PUSH18 0xCBD09A96343C1B79090FB1B63C4F4548F97F 0xC 0xF9 PC XOR PUSH31 0x557D4964736F6C634300081C00330000000000000000000000000000000000 "},"methodIdentifiers":{"createProject(address,string)":"c5cca334","getProject(uint256)":"f0f3f2c8","markCompleted(uint256)":"cac5c512","projectCount()":"36fbad26","projects(uint256)":"107046bd","releaseFunds(uint256)":"4d68282f"}}}}}